{
  "contractName": "Documents",
  "abi": [
    {
      "inputs": [
        {
          "internalType": "bytes32",
          "name": "",
          "type": "bytes32"
        }
      ],
      "name": "documents",
      "outputs": [
        {
          "internalType": "address",
          "name": "owner",
          "type": "address"
        },
        {
          "internalType": "bytes32",
          "name": "hash",
          "type": "bytes32"
        },
        {
          "internalType": "uint256",
          "name": "blockNumber",
          "type": "uint256"
        },
        {
          "internalType": "bool",
          "name": "exists",
          "type": "bool"
        }
      ],
      "stateMutability": "view",
      "type": "function",
      "constant": true
    },
    {
      "inputs": [
        {
          "internalType": "bytes32",
          "name": "hash",
          "type": "bytes32"
        }
      ],
      "name": "addDocument",
      "outputs": [],
      "stateMutability": "nonpayable",
      "type": "function"
    }
  ],
  "bytecode": "0x608060405234801561001057600080fd5b50610348806100206000396000f3fe608060405234801561001057600080fd5b50600436106100365760003560e01c80632b2805db1461003b578063582a28631461006e575b600080fd5b6100556004803603810190610050919061021c565b61008a565b60405161006594939291906102cd565b60405180910390f35b6100886004803603810190610083919061021c565b6100e7565b005b60006020528060005260406000206000915090508060000160009054906101000a900473ffffffffffffffffffffffffffffffffffffffff16908060010154908060020154908060030160009054906101000a900460ff16905084565b60008082815260200190815260200160002060030160009054906101000a900460ff161561011457600080fd5b60405180608001604052803373ffffffffffffffffffffffffffffffffffffffff1681526020018281526020014381526020016001151581525060008083815260200190815260200160002060008201518160000160006101000a81548173ffffffffffffffffffffffffffffffffffffffff021916908373ffffffffffffffffffffffffffffffffffffffff160217905550602082015181600101556040820151816002015560608201518160030160006101000a81548160ff02191690831515021790555090505050565b600080fd5b6000819050919050565b6101f9816101e6565b811461020457600080fd5b50565b600081359050610216816101f0565b92915050565b600060208284031215610232576102316101e1565b5b600061024084828501610207565b91505092915050565b600073ffffffffffffffffffffffffffffffffffffffff82169050919050565b600061027482610249565b9050919050565b61028481610269565b82525050565b610293816101e6565b82525050565b6000819050919050565b6102ac81610299565b82525050565b60008115159050919050565b6102c7816102b2565b82525050565b60006080820190506102e2600083018761027b565b6102ef602083018661028a565b6102fc60408301856102a3565b61030960608301846102be565b9594505050505056fea2646970667358221220eeb960228e349136392cdbeffc6e721710054fe38bc545492ed10dc16e036d7764736f6c634300080f0033",
  "immutableReferences": {},
  "source": "// SPDX-License-Identifier: MIT\npragma solidity >=0.4.22 <0.9.0;\n\n\ncontract Documents {\n\n    // a single record of a submitted document hash\n    struct Document {\n        address owner;\n        bytes32 hash;\n        uint blockNumber;\n        bool exists;\n    }\n\n    // hash table used to lookup and store all submitted document hashes\n    mapping(bytes32 => Document) public documents;\n\n    function addDocument(bytes32 hash) external {\n        // do not allow overwriting of existing entries\n        require(!documents[hash].exists);\n        // add new entry\n        documents[hash] = Document(msg.sender, hash, block.number, true);\n    }\n}\n",
  "sourcePath": "/Users/jay/Documents/fypotbfinal/contracts/DocuHash.sol",
  "compiler": {
    "name": "solc",
    "version": "0.8.15+commit.e14f2714.Emscripten.clang"
  },
  "schemaVersion": "3.4.8",
  "updatedAt": "2022-07-30T21:53:51.420Z",
  "networkType": "ethereum",
  "devdoc": {
    "kind": "dev",
    "methods": {},
    "version": 1
  },
  "userdoc": {
    "kind": "user",
    "methods": {},
    "version": 1
  }
}